{
  "contractName": "ethervote",
  "abi": [
    {
      "constant": true,
      "inputs": [],
      "name": "name",
      "outputs": [
        {
          "name": "",
          "type": "string"
        }
      ],
      "payable": false,
      "stateMutability": "view",
      "type": "function"
    },
    {
      "constant": true,
      "inputs": [],
      "name": "defaultVotingTime",
      "outputs": [
        {
          "name": "",
          "type": "uint256"
        }
      ],
      "payable": false,
      "stateMutability": "view",
      "type": "function"
    },
    {
      "constant": true,
      "inputs": [],
      "name": "owner",
      "outputs": [
        {
          "name": "",
          "type": "address"
        }
      ],
      "payable": false,
      "stateMutability": "view",
      "type": "function"
    },
    {
      "constant": true,
      "inputs": [],
      "name": "creationTime",
      "outputs": [
        {
          "name": "",
          "type": "uint256"
        }
      ],
      "payable": false,
      "stateMutability": "view",
      "type": "function"
    },
    {
      "inputs": [
        {
          "name": "_name",
          "type": "string"
        },
        {
          "name": "_defaultVotingTime",
          "type": "uint256"
        }
      ],
      "payable": false,
      "stateMutability": "nonpayable",
      "type": "constructor"
    },
    {
      "anonymous": false,
      "inputs": [
        {
          "indexed": false,
          "name": "id",
          "type": "int256"
        }
      ],
      "name": "addProposal",
      "type": "event"
    },
    {
      "anonymous": false,
      "inputs": [
        {
          "indexed": false,
          "name": "a",
          "type": "bool"
        }
      ],
      "name": "e_vote",
      "type": "event"
    },
    {
      "anonymous": false,
      "inputs": [
        {
          "indexed": false,
          "name": "o",
          "type": "string"
        }
      ],
      "name": "option",
      "type": "event"
    },
    {
      "constant": false,
      "inputs": [
        {
          "name": "_voter",
          "type": "address"
        },
        {
          "name": "_privilege",
          "type": "int256"
        }
      ],
      "name": "addVoter",
      "outputs": [
        {
          "name": "",
          "type": "bool"
        }
      ],
      "payable": false,
      "stateMutability": "nonpayable",
      "type": "function"
    },
    {
      "constant": true,
      "inputs": [
        {
          "name": "_voter",
          "type": "address"
        }
      ],
      "name": "getPrivilege",
      "outputs": [
        {
          "name": "",
          "type": "int256"
        }
      ],
      "payable": false,
      "stateMutability": "view",
      "type": "function"
    },
    {
      "constant": false,
      "inputs": [
        {
          "name": "_voter",
          "type": "address"
        },
        {
          "name": "_privilege",
          "type": "int256"
        }
      ],
      "name": "changePrivilege",
      "outputs": [
        {
          "name": "",
          "type": "bool"
        }
      ],
      "payable": false,
      "stateMutability": "nonpayable",
      "type": "function"
    },
    {
      "constant": false,
      "inputs": [
        {
          "name": "_voter",
          "type": "address"
        }
      ],
      "name": "deleteVoter",
      "outputs": [],
      "payable": false,
      "stateMutability": "nonpayable",
      "type": "function"
    },
    {
      "constant": true,
      "inputs": [],
      "name": "getNumberOfVoters",
      "outputs": [
        {
          "name": "",
          "type": "int256"
        }
      ],
      "payable": false,
      "stateMutability": "view",
      "type": "function"
    },
    {
      "constant": false,
      "inputs": [
        {
          "name": "_name",
          "type": "string"
        },
        {
          "name": "_description",
          "type": "string"
        }
      ],
      "name": "newProposal",
      "outputs": [],
      "payable": false,
      "stateMutability": "nonpayable",
      "type": "function"
    },
    {
      "constant": true,
      "inputs": [
        {
          "name": "id",
          "type": "int256"
        }
      ],
      "name": "getProposalName",
      "outputs": [
        {
          "name": "",
          "type": "string"
        }
      ],
      "payable": false,
      "stateMutability": "view",
      "type": "function"
    },
    {
      "constant": false,
      "inputs": [
        {
          "name": "_proposalID",
          "type": "int256"
        },
        {
          "name": "_name",
          "type": "string"
        },
        {
          "name": "_description",
          "type": "string"
        }
      ],
      "name": "addOption",
      "outputs": [
        {
          "name": "",
          "type": "int256"
        }
      ],
      "payable": false,
      "stateMutability": "nonpayable",
      "type": "function"
    },
    {
      "constant": true,
      "inputs": [
        {
          "name": "_proposalID",
          "type": "int256"
        }
      ],
      "name": "getNumberOfOptions",
      "outputs": [
        {
          "name": "",
          "type": "int256"
        }
      ],
      "payable": false,
      "stateMutability": "view",
      "type": "function"
    },
    {
      "constant": true,
      "inputs": [
        {
          "name": "_proposalID",
          "type": "int256"
        },
        {
          "name": "_n_option",
          "type": "int256"
        }
      ],
      "name": "getNumberOfVotes",
      "outputs": [
        {
          "name": "",
          "type": "int256"
        }
      ],
      "payable": false,
      "stateMutability": "view",
      "type": "function"
    },
    {
      "constant": true,
      "inputs": [
        {
          "name": "_proposalID",
          "type": "int256"
        },
        {
          "name": "_n_option",
          "type": "int256"
        }
      ],
      "name": "getOptionName",
      "outputs": [
        {
          "name": "",
          "type": "string"
        }
      ],
      "payable": false,
      "stateMutability": "view",
      "type": "function"
    },
    {
      "constant": true,
      "inputs": [
        {
          "name": "_proposalID",
          "type": "int256"
        }
      ],
      "name": "hasEnded",
      "outputs": [
        {
          "name": "",
          "type": "bool"
        }
      ],
      "payable": false,
      "stateMutability": "view",
      "type": "function"
    },
    {
      "constant": true,
      "inputs": [],
      "name": "getNumberOfProposals",
      "outputs": [
        {
          "name": "",
          "type": "int256"
        }
      ],
      "payable": false,
      "stateMutability": "view",
      "type": "function"
    },
    {
      "constant": false,
      "inputs": [
        {
          "name": "_proposalID",
          "type": "int256"
        },
        {
          "name": "_option",
          "type": "int256"
        }
      ],
      "name": "vote",
      "outputs": [
        {
          "name": "",
          "type": "bool"
        }
      ],
      "payable": false,
      "stateMutability": "nonpayable",
      "type": "function"
    },
    {
      "constant": true,
      "inputs": [
        {
          "name": "_voter",
          "type": "address"
        },
        {
          "name": "_proposalID",
          "type": "int256"
        }
      ],
      "name": "hasVoted",
      "outputs": [
        {
          "name": "",
          "type": "bool"
        }
      ],
      "payable": false,
      "stateMutability": "view",
      "type": "function"
    }
  ],
  "bytecode": "0x60806040523480156200001157600080fd5b50604051620019a6380380620019a68339810180604052810190808051820192919060200180519060200190929190505050336000806101000a81548173ffffffffffffffffffffffffffffffffffffffff021916908373ffffffffffffffffffffffffffffffffffffffff1602179055506002600160003373ffffffffffffffffffffffffffffffffffffffff1673ffffffffffffffffffffffffffffffffffffffff168152602001908152602001600020600001819055506000600481905550426005819055508160069080519060200190620000f292919062000102565b50806007819055505050620001b1565b828054600181600116156101000203166002900490600052602060002090601f016020900481019282601f106200014557805160ff191683800117855562000176565b8280016001018555821562000176579182015b828111156200017557825182559160200191906001019062000158565b5b50905062000185919062000189565b5090565b620001ae91905b80821115620001aa57600081600090555060010162000190565b5090565b90565b6117e580620001c16000396000f300608060405260043610610107576000357c0100000000000000000000000000000000000000000000000000000000900463ffffffff16806306fdde031461010c578063253eecdf1461019c57806333809b6c1461024c5780634ec3e6851461027757806365b4969a146102dc57806369f74714146103075780636f5b9af31461035657806373fa5706146103bb57806383bd72101461040657806384865b66146104ac57806388e1c739146104d75780638da5cb5b1461051a578063d071193014610571578063d8270dce146105d6578063eae239c314610601578063f1480fb714610658578063f1eb6ec714610725578063f2f9f5531461076a578063f5cbc8e4146107ab575b600080fd5b34801561011857600080fd5b5061012161085a565b6040518080602001828103825283818151815260200191508051906020019080838360005b83811015610161578082015181840152602081019050610146565b50505050905090810190601f16801561018e5780820380516001836020036101000a031916815260200191505b509250505060405180910390f35b3480156101a857600080fd5b506101d160048036038101908080359060200190929190803590602001909291905050506108f8565b6040518080602001828103825283818151815260200191508051906020019080838360005b838110156102115780820151818401526020810190506101f6565b50505050905090810190601f16801561023e5780820380516001836020036101000a031916815260200191505b509250505060405180910390f35b34801561025857600080fd5b50610261610a47565b6040518082815260200191505060405180910390f35b34801561028357600080fd5b506102c2600480360381019080803573ffffffffffffffffffffffffffffffffffffffff16906020019092919080359060200190929190505050610a51565b604051808215151515815260200191505060405180910390f35b3480156102e857600080fd5b506102f1610bcf565b6040518082815260200191505060405180910390f35b34801561031357600080fd5b5061033c6004803603810190808035906020019092919080359060200190929190505050610bd5565b604051808215151515815260200191505060405180910390f35b34801561036257600080fd5b506103a1600480360381019080803573ffffffffffffffffffffffffffffffffffffffff16906020019092919080359060200190929190505050610d5a565b604051808215151515815260200191505060405180910390f35b3480156103c757600080fd5b506103f06004803603810190808035906020019092919080359060200190929190505050610ef2565b6040518082815260200191505060405180910390f35b34801561041257600080fd5b5061043160048036038101908080359060200190929190505050610fbc565b6040518080602001828103825283818151815260200191508051906020019080838360005b83811015610471578082015181840152602081019050610456565b50505050905090810190601f16801561049e5780820380516001836020036101000a031916815260200191505b509250505060405180910390f35b3480156104b857600080fd5b506104c16110a4565b6040518082815260200191505060405180910390f35b3480156104e357600080fd5b50610518600480360381019080803573ffffffffffffffffffffffffffffffffffffffff1690602001909291905050506110b1565b005b34801561052657600080fd5b5061052f611157565b604051808273ffffffffffffffffffffffffffffffffffffffff1673ffffffffffffffffffffffffffffffffffffffff16815260200191505060405180910390f35b34801561057d57600080fd5b506105bc600480360381019080803573ffffffffffffffffffffffffffffffffffffffff1690602001909291908035906020019092919050505061117c565b604051808215151515815260200191505060405180910390f35b3480156105e257600080fd5b506105eb61122a565b6040518082815260200191505060405180910390f35b34801561060d57600080fd5b50610642600480360381019080803573ffffffffffffffffffffffffffffffffffffffff169060200190929190505050611230565b6040518082815260200191505060405180910390f35b34801561066457600080fd5b5061070f60048036038101908080359060200190929190803590602001908201803590602001908080601f0160208091040260200160405190810160405280939291908181526020018383808284378201915050505050509192919290803590602001908201803590602001908080601f016020809104026020016040519081016040528093929190818152602001838380828437820191505050505050919291929050505061127c565b6040518082815260200191505060405180910390f35b34801561073157600080fd5b5061075060048036038101908080359060200190929190505050611441565b604051808215151515815260200191505060405180910390f35b34801561077657600080fd5b5061079560048036038101908080359060200190929190505050611492565b6040518082815260200191505060405180910390f35b3480156107b757600080fd5b50610858600480360381019080803590602001908201803590602001908080601f0160208091040260200160405190810160405280939291908181526020018383808284378201915050505050509192919290803590602001908201803590602001908080601f0160208091040260200160405190810160405280939291908181526020018383808284378201915050505050509192919290505050611504565b005b60068054600181600116156101000203166002900480601f0160208091040260200160405190810160405280929190818152602001828054600181600116156101000203166002900480156108f05780601f106108c5576101008083540402835291602001916108f0565b820191906000526020600020905b8154815290600101906020018083116108d357829003601f168201915b505050505081565b60606003600084815260200190815260200160002060040160009054906101000a900460ff16801561095e575060036000848152602001908152602001600020600601600083815260200190815260200160002060020160009054906101000a900460ff165b15610a2d576003600084815260200190815260200160002060060160008381526020019081526020016000206000018054600181600116156101000203166002900480601f016020809104026020016040519081016040528092919081815260200182805460018160011615610100020316600290048015610a215780601f106109f657610100808354040283529160200191610a21565b820191906000526020600020905b815481529060010190602001808311610a0457829003601f168201915b50505050509050610a41565b602060405190810160405280600081525090505b92915050565b6000600454905090565b6000806000806000808760018060008373ffffffffffffffffffffffffffffffffffffffff1673ffffffffffffffffffffffffffffffffffffffff1681526020019081526020016000206000015412151515610aac57600080fd5b6003600089815260200190815260200160002060040160009054906101000a900460ff1615610bc257610ade88611492565b955060009350600092505b85831215610bba57610afb8884610ef2565b9450600091505b84821215610baf578873ffffffffffffffffffffffffffffffffffffffff16600360008a8152602001908152602001600020600601600085815260200190815260200160002060030183815481101515610b5857fe5b9060005260206000200160009054906101000a900473ffffffffffffffffffffffffffffffffffffffff1673ffffffffffffffffffffffffffffffffffffffff161415610ba457600193505b816001019150610b02565b826001019250610ae9565b839650610bc3565b5b50505050505092915050565b60075481565b60003360018060008373ffffffffffffffffffffffffffffffffffffffff1673ffffffffffffffffffffffffffffffffffffffff1681526020019081526020016000206000015412151515610c2957600080fd5b6003600085815260200190815260200160002060040160009054906101000a900460ff168015610c8d575060036000858152602001908152602001600020600601600084815260200190815260200160002060020160009054906101000a900460ff165b8015610cae5750600360008581526020019081526020016000206003015442105b15610d5357610cbd3385610a51565b1515610d52576003600085815260200190815260200160002060060160008481526020019081526020016000206003013390806001815401808255809150509060018203906000526020600020016000909192909190916101000a81548173ffffffffffffffffffffffffffffffffffffffff021916908373ffffffffffffffffffffffffffffffffffffffff160217905550505b5b5092915050565b60008060009054906101000a900473ffffffffffffffffffffffffffffffffffffffff1673ffffffffffffffffffffffffffffffffffffffff163373ffffffffffffffffffffffffffffffffffffffff16141515610db757600080fd5b60018212158015610dc9575060038213155b8015610e1757506000600160008573ffffffffffffffffffffffffffffffffffffffff1673ffffffffffffffffffffffffffffffffffffffff16815260200190815260200160002060000154145b15610ee75760206040519081016040528083815250600160008573ffffffffffffffffffffffffffffffffffffffff1673ffffffffffffffffffffffffffffffffffffffff1681526020019081526020016000206000820151816000015590505060028390806001815401808255809150509060018203906000526020600020016000909192909190916101000a81548173ffffffffffffffffffffffffffffffffffffffff021916908373ffffffffffffffffffffffffffffffffffffffff1602179055505060019050610eec565b600090505b92915050565b60006003600084815260200190815260200160002060040160009054906101000a900460ff168015610f58575060036000848152602001908152602001600020600601600083815260200190815260200160002060020160009054906101000a900460ff165b15610f9257600360008481526020019081526020016000206006016000838152602001908152602001600020600301805490509050610fb6565b7fffffffffffffffffffffffffffffffffffffffffffffffffffffffffffffffff90505b92915050565b6060600082138015610fd057506004548213155b1561108b57600360008381526020019081526020016000206001018054600181600116156101000203166002900480601f01602080910402602001604051908101604052809291908181526020018280546001816001161561010002031660029004801561107f5780601f106110545761010080835404028352916020019161107f565b820191906000526020600020905b81548152906001019060200180831161106257829003601f168201915b5050505050905061109f565b602060405190810160405280600081525090505b919050565b6000600280549050905090565b6000809054906101000a900473ffffffffffffffffffffffffffffffffffffffff1673ffffffffffffffffffffffffffffffffffffffff163373ffffffffffffffffffffffffffffffffffffffff1614151561110c57600080fd5b6000600160008373ffffffffffffffffffffffffffffffffffffffff1673ffffffffffffffffffffffffffffffffffffffff1681526020019081526020016000206000018190555050565b6000809054906101000a900473ffffffffffffffffffffffffffffffffffffffff1681565b60008060009054906101000a900473ffffffffffffffffffffffffffffffffffffffff1673ffffffffffffffffffffffffffffffffffffffff163373ffffffffffffffffffffffffffffffffffffffff161415156111d957600080fd5b81600160008573ffffffffffffffffffffffffffffffffffffffff1673ffffffffffffffffffffffffffffffffffffffff168152602001908152602001600020600001819055506001905092915050565b60055481565b6000600160008373ffffffffffffffffffffffffffffffffffffffff1673ffffffffffffffffffffffffffffffffffffffff168152602001908152602001600020600001549050919050565b600080843373ffffffffffffffffffffffffffffffffffffffff166003600083815260200190815260200160002060000160009054906101000a900473ffffffffffffffffffffffffffffffffffffffff1673ffffffffffffffffffffffffffffffffffffffff161415156112f057600080fd5b6000855111801561132157506003600087815260200190815260200160002060040160009054906101000a900460ff165b156114145760036000878152602001908152602001600020600501600081546001019190508190559150846003600088815260200190815260200160002060060160008481526020019081526020016000206000019080519060200190611389929190611714565b508360036000888152602001908152602001600020600601600084815260200190815260200160002060010190805190602001906113c8929190611714565b50600160036000888152602001908152602001600020600601600084815260200190815260200160002060020160006101000a81548160ff021916908315150217905550819250611438565b7fffffffffffffffffffffffffffffffffffffffffffffffffffffffffffffffff92505b50509392505050565b60006003600083815260200190815260200160002060040160009054906101000a900460ff161561148c5760036000838152602001908152602001600020600301544211905061148d565b5b919050565b60006003600083815260200190815260200160002060040160009054906101000a900460ff16156114db57600360008381526020019081526020016000206005015490506114ff565b7fffffffffffffffffffffffffffffffffffffffffffffffffffffffffffffffff90505b919050565b6000336002600160008373ffffffffffffffffffffffffffffffffffffffff1673ffffffffffffffffffffffffffffffffffffffff168152602001908152602001600020600001541215151561155957600080fd5b6000845111801561156b575060008351115b156116b6576004600081546001019190508190559150836003600084815260200190815260200160002060010190805190602001906115ab929190611714565b50826003600084815260200190815260200160002060020190805190602001906115d6929190611714565b50336003600084815260200190815260200160002060000160006101000a81548173ffffffffffffffffffffffffffffffffffffffff021916908373ffffffffffffffffffffffffffffffffffffffff1602179055506007544201600360008481526020019081526020016000206003018190555060016003600084815260200190815260200160002060040160006101000a81548160ff0219169083151502179055507f03d2af6040faa3952c8a471b3a3de1b66d2caf669148599e78be4df114f0a076826040518082815260200191505060405180910390a161170e565b7f03d2af6040faa3952c8a471b3a3de1b66d2caf669148599e78be4df114f0a0767fffffffffffffffffffffffffffffffffffffffffffffffffffffffffffffffff6040518082815260200191505060405180910390a15b50505050565b828054600181600116156101000203166002900490600052602060002090601f016020900481019282601f1061175557805160ff1916838001178555611783565b82800160010185558215611783579182015b82811115611782578251825591602001919060010190611767565b5b5090506117909190611794565b5090565b6117b691905b808211156117b257600081600090555060010161179a565b5090565b905600a165627a7a72305820c7086b7324932277499897fe537120c080226b54afb65634a04fce54a69cf63d0029",
  "source": "pragma solidity ^0.4.4;\n\n\ncontract ethervote {\n  //Data structures\n  struct Voter {\n      int privilege;      //Privilegi: 0 usuari no valid, 1 pot votar, 2 pot crear votacions\n  }\n\n  struct Option {\n    string name;\n    string description;\n    bool exists;\n    address[] votes;\n  }\n\n  struct Proposal{\n    address creator;\n    string name;\n    string description;\n    uint votingDeadline;\n    bool exists;\n    int n_options;\n    mapping (int => Option) options;\n  }\n  //fi Data structures\n\n    // Variables Globals\n    address public owner;                      //administrador de aquesta instancia, tindra el control\n    mapping(address => Voter) private census;  //conjunt de adreces que podran votar\n    address[] private voters;\n    mapping (int => Proposal) private proposals;       //conjunt de proposals a votar\n    int private n_proposals;\n    uint public creationTime;                  //Quan es va crear el contracte\n    string public name;                        //Nom de la organització\n    uint public defaultVotingTime;                    //Temps per defecte de les votacions\n    //Fi Variables Globals\n\n\n    //Modifiers\n    modifier onlyOwner {\n        require(msg.sender == owner);\n        _;\n    }\n    modifier onlyCreator(int _proposalID) {\n      require(proposals[_proposalID].creator == msg.sender);\n      _;\n    }\n    modifier canVote(address _voter) {\n        require(census[_voter].privilege >= 1);\n        _;\n    }\n    modifier canCreate(address _voter) {\n      require(census[_voter].privilege >=2);\n      _;\n    }\n    //Creadora\n    constructor(string _name, uint _defaultVotingTime) public  {\n      owner = msg.sender;\n      census[msg.sender].privilege = 2;\n      n_proposals = 0;\n      creationTime = now;\n      name = _name;\n      defaultVotingTime = _defaultVotingTime;\n     }\n    //L'esdeveniment saltara amb el resultat de si s'ha afegit be o no el votant. Una adreça 0 significa que hi ha hagut algun error\n    //event addVoterResult(address _voter);\n\n    //Afegir votant\n    function addVoter(address _voter, int _privilege) onlyOwner public returns(bool) {\n      if((_privilege >= 1) &&\n        (_privilege <=3) &&\n        (census[_voter].privilege == 0)){\n            census[_voter] = Voter({privilege: _privilege});\n            voters.push(_voter);\n            return true;\n            //emit addVoterResult(_voter);\n      }\n      return false;\n      //emit addVoterResult(address(0));\n    }\n\n    function getPrivilege(address _voter) public view returns(int){\n      return census[_voter].privilege;\n    }\n\n    function changePrivilege(address _voter, int _privilege) onlyOwner public returns(bool) {\n      census[_voter].privilege = _privilege;\n      return true;\n    }\n\n    function deleteVoter(address _voter) public onlyOwner {\n        census[_voter].privilege = 0;\n    }\n\n    function getNumberOfVoters() public view returns (int){\n        return int(voters.length);\n    }\n\nevent addProposal(int id);\nfunction newProposal(string _name, string _description)  canCreate(msg.sender) public {\n    if( (bytes(_name).length > 0) &&\n        (bytes(_description).length > 0)\n    ){\n        int proposalID = ++n_proposals;\n        proposals[proposalID].name = _name;\n        proposals[proposalID].description = _description;\n        proposals[proposalID].creator = msg.sender;\n        proposals[proposalID].votingDeadline = now + defaultVotingTime;\n        proposals[proposalID].exists = true;\n        emit addProposal(proposalID);\n    }\n    else emit addProposal(-1);\n}\n\n    function getProposalName(int id) public view returns(string) {\n        //string pname = \"\";\n        if(id > 0 && id <= n_proposals) {\n            return proposals[id].name;\n            //emit option(proposals[id].name);\n        } else return \"\";\n    }\n\n    function addOption(int _proposalID, string _name, string _description) onlyCreator(_proposalID) public returns(int)  {\n        if( (bytes(_name).length > 0) && //si el nom no esta buit\n            (proposals[_proposalID].exists) //si la proposal existeix\n        ){\n\n            int n_option = ++proposals[_proposalID].n_options;\n            proposals[_proposalID].options[n_option].name = _name;\n            proposals[_proposalID].options[n_option].description  = _description;\n            proposals[_proposalID].options[n_option].exists = true;\n            return n_option;\n        } else return -1;\n    }\n\n    function getNumberOfOptions(int _proposalID) public view returns(int) {\n      if(proposals[_proposalID].exists){\n          return proposals[_proposalID].n_options;\n      } else return -1;\n    }\n    function getNumberOfVotes(int _proposalID, int _n_option) public view returns(int){\n      if(proposals[_proposalID].exists &&\n         proposals[_proposalID].options[_n_option].exists\n        ){\n          return int(proposals[_proposalID].options[_n_option].votes.length);\n      } else return -1;\n    }\n    function getOptionName(int _proposalID, int _n_option) public view returns(string) {\n      if(proposals[_proposalID].exists &&\n         proposals[_proposalID].options[_n_option].exists\n        ){\n          return proposals[_proposalID].options[_n_option].name;\n      } else return \"\";\n    }\n    function hasEnded(int _proposalID) public view returns(bool) {\n      if(proposals[_proposalID].exists){\n          return now > proposals[_proposalID].votingDeadline;\n      }\n    }\n      function getNumberOfProposals() public view returns (int) {\n        return n_proposals;\n      }\n\n    event e_vote(bool a);\n    event option(string o);\n    function vote(int _proposalID, int _option) public canVote(msg.sender) returns(bool){\n      if(proposals[_proposalID].exists &&\n           proposals[_proposalID].options[_option].exists &&\n           (now < proposals[_proposalID].votingDeadline)\n       ) {\n           if(!hasVoted(msg.sender,_proposalID)) {\n               proposals[_proposalID].options[_option].votes.push(msg.sender);\n           }\n       }\n    }\n\n    function hasVoted(address _voter, int _proposalID) public view canVote(_voter) returns(bool) {\n        if (proposals[_proposalID].exists) {\n            int n_options = getNumberOfOptions(_proposalID);\n            int n_votes;\n            bool voted = false;\n            for (int opt=0; opt < n_options; ++opt) {\n                n_votes = getNumberOfVotes(_proposalID,opt);\n                for (int i=0; i < n_votes; ++i) {\n                    if(proposals[_proposalID].options[opt].votes[uint(i)] == _voter) voted = true;\n                }\n            }\n            return voted;\n        }\n    }\n\n}\n",
  "sourcePath": "/home/adria/ethervote/contracts/ethervote.sol",
  "compiler": {
    "name": "solc",
    "version": "0.4.23+commit.124ca40d.Emscripten.clang"
  },
  "schemaVersion": "2.0.0",
  "updatedAt": "2018-05-09T14:41:08.137Z"
}