{
  "contractName": "ethervote",
  "abi": [
    {
      "constant": true,
      "inputs": [],
      "name": "name",
      "outputs": [
        {
          "name": "",
          "type": "string"
        }
      ],
      "payable": false,
      "stateMutability": "view",
      "type": "function"
    },
    {
      "constant": true,
      "inputs": [],
      "name": "defaultVotingTime",
      "outputs": [
        {
          "name": "",
          "type": "uint256"
        }
      ],
      "payable": false,
      "stateMutability": "view",
      "type": "function"
    },
    {
      "constant": true,
      "inputs": [],
      "name": "owner",
      "outputs": [
        {
          "name": "",
          "type": "address"
        }
      ],
      "payable": false,
      "stateMutability": "view",
      "type": "function"
    },
    {
      "constant": true,
      "inputs": [],
      "name": "creationTime",
      "outputs": [
        {
          "name": "",
          "type": "uint256"
        }
      ],
      "payable": false,
      "stateMutability": "view",
      "type": "function"
    },
    {
      "inputs": [
        {
          "name": "_name",
          "type": "string"
        },
        {
          "name": "_defaultVotingTime",
          "type": "uint256"
        }
      ],
      "payable": false,
      "stateMutability": "nonpayable",
      "type": "constructor"
    },
    {
      "anonymous": false,
      "inputs": [
        {
          "indexed": false,
          "name": "id",
          "type": "int256"
        }
      ],
      "name": "addProposal",
      "type": "event"
    },
    {
      "anonymous": false,
      "inputs": [
        {
          "indexed": false,
          "name": "a",
          "type": "bool"
        }
      ],
      "name": "e_vote",
      "type": "event"
    },
    {
      "anonymous": false,
      "inputs": [
        {
          "indexed": false,
          "name": "o",
          "type": "string"
        }
      ],
      "name": "option",
      "type": "event"
    },
    {
      "constant": false,
      "inputs": [
        {
          "name": "_voter",
          "type": "address"
        },
        {
          "name": "_privilege",
          "type": "int256"
        }
      ],
      "name": "addVoter",
      "outputs": [
        {
          "name": "",
          "type": "bool"
        }
      ],
      "payable": false,
      "stateMutability": "nonpayable",
      "type": "function"
    },
    {
      "constant": true,
      "inputs": [
        {
          "name": "_voter",
          "type": "address"
        }
      ],
      "name": "getPrivilege",
      "outputs": [
        {
          "name": "",
          "type": "int256"
        }
      ],
      "payable": false,
      "stateMutability": "view",
      "type": "function"
    },
    {
      "constant": false,
      "inputs": [
        {
          "name": "_voter",
          "type": "address"
        },
        {
          "name": "_privilege",
          "type": "int256"
        }
      ],
      "name": "changePrivilege",
      "outputs": [
        {
          "name": "",
          "type": "bool"
        }
      ],
      "payable": false,
      "stateMutability": "nonpayable",
      "type": "function"
    },
    {
      "constant": false,
      "inputs": [
        {
          "name": "_voter",
          "type": "address"
        }
      ],
      "name": "deleteVoter",
      "outputs": [],
      "payable": false,
      "stateMutability": "nonpayable",
      "type": "function"
    },
    {
      "constant": true,
      "inputs": [],
      "name": "getNumberOfVoters",
      "outputs": [
        {
          "name": "",
          "type": "int256"
        }
      ],
      "payable": false,
      "stateMutability": "view",
      "type": "function"
    },
    {
      "constant": false,
      "inputs": [
        {
          "name": "_name",
          "type": "string"
        },
        {
          "name": "_description",
          "type": "string"
        }
      ],
      "name": "newProposal",
      "outputs": [],
      "payable": false,
      "stateMutability": "nonpayable",
      "type": "function"
    },
    {
      "constant": true,
      "inputs": [
        {
          "name": "id",
          "type": "int256"
        }
      ],
      "name": "getProposalName",
      "outputs": [
        {
          "name": "",
          "type": "string"
        }
      ],
      "payable": false,
      "stateMutability": "view",
      "type": "function"
    },
    {
      "constant": true,
      "inputs": [
        {
          "name": "id",
          "type": "int256"
        }
      ],
      "name": "getProposalDescription",
      "outputs": [
        {
          "name": "",
          "type": "string"
        }
      ],
      "payable": false,
      "stateMutability": "view",
      "type": "function"
    },
    {
      "constant": false,
      "inputs": [
        {
          "name": "_proposalID",
          "type": "int256"
        },
        {
          "name": "_name",
          "type": "string"
        },
        {
          "name": "_description",
          "type": "string"
        }
      ],
      "name": "addOption",
      "outputs": [
        {
          "name": "",
          "type": "int256"
        }
      ],
      "payable": false,
      "stateMutability": "nonpayable",
      "type": "function"
    },
    {
      "constant": true,
      "inputs": [
        {
          "name": "_proposalID",
          "type": "int256"
        }
      ],
      "name": "getNumberOfOptions",
      "outputs": [
        {
          "name": "",
          "type": "int256"
        }
      ],
      "payable": false,
      "stateMutability": "view",
      "type": "function"
    },
    {
      "constant": true,
      "inputs": [],
      "name": "getName",
      "outputs": [
        {
          "name": "",
          "type": "string"
        }
      ],
      "payable": false,
      "stateMutability": "view",
      "type": "function"
    },
    {
      "constant": true,
      "inputs": [
        {
          "name": "_proposalID",
          "type": "int256"
        },
        {
          "name": "_n_option",
          "type": "int256"
        }
      ],
      "name": "getNumberOfVotes",
      "outputs": [
        {
          "name": "",
          "type": "int256"
        }
      ],
      "payable": false,
      "stateMutability": "view",
      "type": "function"
    },
    {
      "constant": true,
      "inputs": [
        {
          "name": "_proposalID",
          "type": "int256"
        },
        {
          "name": "_n_option",
          "type": "int256"
        }
      ],
      "name": "getOptionName",
      "outputs": [
        {
          "name": "",
          "type": "string"
        }
      ],
      "payable": false,
      "stateMutability": "view",
      "type": "function"
    },
    {
      "constant": true,
      "inputs": [
        {
          "name": "_proposalID",
          "type": "int256"
        },
        {
          "name": "_n_option",
          "type": "int256"
        }
      ],
      "name": "getOptionDescription",
      "outputs": [
        {
          "name": "",
          "type": "string"
        }
      ],
      "payable": false,
      "stateMutability": "view",
      "type": "function"
    },
    {
      "constant": true,
      "inputs": [
        {
          "name": "_proposalID",
          "type": "int256"
        }
      ],
      "name": "hasEnded",
      "outputs": [
        {
          "name": "",
          "type": "bool"
        }
      ],
      "payable": false,
      "stateMutability": "view",
      "type": "function"
    },
    {
      "constant": true,
      "inputs": [],
      "name": "getNumberOfProposals",
      "outputs": [
        {
          "name": "",
          "type": "int256"
        }
      ],
      "payable": false,
      "stateMutability": "view",
      "type": "function"
    },
    {
      "constant": false,
      "inputs": [
        {
          "name": "_proposalID",
          "type": "int256"
        },
        {
          "name": "_option",
          "type": "int256"
        }
      ],
      "name": "vote",
      "outputs": [
        {
          "name": "",
          "type": "bool"
        }
      ],
      "payable": false,
      "stateMutability": "nonpayable",
      "type": "function"
    },
    {
      "constant": true,
      "inputs": [
        {
          "name": "_voter",
          "type": "address"
        },
        {
          "name": "_proposalID",
          "type": "int256"
        }
      ],
      "name": "hasVoted",
      "outputs": [
        {
          "name": "",
          "type": "bool"
        }
      ],
      "payable": false,
      "stateMutability": "view",
      "type": "function"
    }
  ],
  "bytecode": "0x60806040523480156200001157600080fd5b5060405162001e8738038062001e878339810180604052810190808051820192919060200180519060200190929190505050336000806101000a81548173ffffffffffffffffffffffffffffffffffffffff021916908373ffffffffffffffffffffffffffffffffffffffff1602179055506002600160003373ffffffffffffffffffffffffffffffffffffffff1673ffffffffffffffffffffffffffffffffffffffff168152602001908152602001600020600001819055506000600481905550426005819055508160069080519060200190620000f292919062000102565b50806007819055505050620001b1565b828054600181600116156101000203166002900490600052602060002090601f016020900481019282601f106200014557805160ff191683800117855562000176565b8280016001018555821562000176579182015b828111156200017557825182559160200191906001019062000158565b5b50905062000185919062000189565b5090565b620001ae91905b80821115620001aa57600081600090555060010162000190565b5090565b90565b611cc680620001c16000396000f300608060405260043610610128576000357c0100000000000000000000000000000000000000000000000000000000900463ffffffff16806306fdde031461012d57806317d7de7c146101bd578063253eecdf1461024d57806333809b6c146102fd5780634ec3e6851461032857806365b4969a1461038d57806369f74714146103b85780636abd1a59146104075780636f5b9af3146104ad57806373fa57061461051257806383bd72101461055d57806384865b661461060357806388e1c7391461062e5780638da5cb5b14610671578063d0711930146106c8578063d1a3741f1461072d578063d8270dce146107dd578063eae239c314610808578063f1480fb71461085f578063f1eb6ec71461092c578063f2f9f55314610971578063f5cbc8e4146109b2575b600080fd5b34801561013957600080fd5b50610142610a61565b6040518080602001828103825283818151815260200191508051906020019080838360005b83811015610182578082015181840152602081019050610167565b50505050905090810190601f1680156101af5780820380516001836020036101000a031916815260200191505b509250505060405180910390f35b3480156101c957600080fd5b506101d2610aff565b6040518080602001828103825283818151815260200191508051906020019080838360005b838110156102125780820151818401526020810190506101f7565b50505050905090810190601f16801561023f5780820380516001836020036101000a031916815260200191505b509250505060405180910390f35b34801561025957600080fd5b506102826004803603810190808035906020019092919080359060200190929190505050610ba1565b6040518080602001828103825283818151815260200191508051906020019080838360005b838110156102c25780820151818401526020810190506102a7565b50505050905090810190601f1680156102ef5780820380516001836020036101000a031916815260200191505b509250505060405180910390f35b34801561030957600080fd5b50610312610cf0565b6040518082815260200191505060405180910390f35b34801561033457600080fd5b50610373600480360381019080803573ffffffffffffffffffffffffffffffffffffffff16906020019092919080359060200190929190505050610cfa565b604051808215151515815260200191505060405180910390f35b34801561039957600080fd5b506103a2610e79565b6040518082815260200191505060405180910390f35b3480156103c457600080fd5b506103ed6004803603810190808035906020019092919080359060200190929190505050610e7f565b604051808215151515815260200191505060405180910390f35b34801561041357600080fd5b5061043260048036038101908080359060200190929190505050611004565b6040518080602001828103825283818151815260200191508051906020019080838360005b83811015610472578082015181840152602081019050610457565b50505050905090810190601f16801561049f5780820380516001836020036101000a031916815260200191505b509250505060405180910390f35b3480156104b957600080fd5b506104f8600480360381019080803573ffffffffffffffffffffffffffffffffffffffff169060200190929190803590602001909291905050506110ec565b604051808215151515815260200191505060405180910390f35b34801561051e57600080fd5b506105476004803603810190808035906020019092919080359060200190929190505050611284565b6040518082815260200191505060405180910390f35b34801561056957600080fd5b506105886004803603810190808035906020019092919050505061134e565b6040518080602001828103825283818151815260200191508051906020019080838360005b838110156105c85780820151818401526020810190506105ad565b50505050905090810190601f1680156105f55780820380516001836020036101000a031916815260200191505b509250505060405180910390f35b34801561060f57600080fd5b50610618611436565b6040518082815260200191505060405180910390f35b34801561063a57600080fd5b5061066f600480360381019080803573ffffffffffffffffffffffffffffffffffffffff169060200190929190505050611443565b005b34801561067d57600080fd5b506106866114e9565b604051808273ffffffffffffffffffffffffffffffffffffffff1673ffffffffffffffffffffffffffffffffffffffff16815260200191505060405180910390f35b3480156106d457600080fd5b50610713600480360381019080803573ffffffffffffffffffffffffffffffffffffffff1690602001909291908035906020019092919050505061150e565b604051808215151515815260200191505060405180910390f35b34801561073957600080fd5b5061076260048036038101908080359060200190929190803590602001909291905050506115bc565b6040518080602001828103825283818151815260200191508051906020019080838360005b838110156107a2578082015181840152602081019050610787565b50505050905090810190601f1680156107cf5780820380516001836020036101000a031916815260200191505b509250505060405180910390f35b3480156107e957600080fd5b506107f261170b565b6040518082815260200191505060405180910390f35b34801561081457600080fd5b50610849600480360381019080803573ffffffffffffffffffffffffffffffffffffffff169060200190929190505050611711565b6040518082815260200191505060405180910390f35b34801561086b57600080fd5b5061091660048036038101908080359060200190929190803590602001908201803590602001908080601f0160208091040260200160405190810160405280939291908181526020018383808284378201915050505050509192919290803590602001908201803590602001908080601f016020809104026020016040519081016040528093929190818152602001838380828437820191505050505050919291929050505061175d565b6040518082815260200191505060405180910390f35b34801561093857600080fd5b5061095760048036038101908080359060200190929190505050611922565b604051808215151515815260200191505060405180910390f35b34801561097d57600080fd5b5061099c60048036038101908080359060200190929190505050611973565b6040518082815260200191505060405180910390f35b3480156109be57600080fd5b50610a5f600480360381019080803590602001908201803590602001908080601f0160208091040260200160405190810160405280939291908181526020018383808284378201915050505050509192919290803590602001908201803590602001908080601f01602080910402602001604051908101604052809392919081815260200183838082843782019150505050505091929192905050506119e5565b005b60068054600181600116156101000203166002900480601f016020809104026020016040519081016040528092919081815260200182805460018160011615610100020316600290048015610af75780601f10610acc57610100808354040283529160200191610af7565b820191906000526020600020905b815481529060010190602001808311610ada57829003601f168201915b505050505081565b606060068054600181600116156101000203166002900480601f016020809104026020016040519081016040528092919081815260200182805460018160011615610100020316600290048015610b975780601f10610b6c57610100808354040283529160200191610b97565b820191906000526020600020905b815481529060010190602001808311610b7a57829003601f168201915b5050505050905090565b60606003600084815260200190815260200160002060040160009054906101000a900460ff168015610c07575060036000848152602001908152602001600020600601600083815260200190815260200160002060020160009054906101000a900460ff165b15610cd6576003600084815260200190815260200160002060060160008381526020019081526020016000206000018054600181600116156101000203166002900480601f016020809104026020016040519081016040528092919081815260200182805460018160011615610100020316600290048015610cca5780601f10610c9f57610100808354040283529160200191610cca565b820191906000526020600020905b815481529060010190602001808311610cad57829003601f168201915b50505050509050610cea565b602060405190810160405280600081525090505b92915050565b6000600454905090565b6000806000806000808760018060008373ffffffffffffffffffffffffffffffffffffffff1673ffffffffffffffffffffffffffffffffffffffff1681526020019081526020016000206000015412151515610d5557600080fd5b6003600089815260200190815260200160002060040160009054906101000a900460ff1615610e6c57610d8788611973565b955060009350600192505b8583131515610e6457610da58884611284565b9450600091505b84821215610e59578873ffffffffffffffffffffffffffffffffffffffff16600360008a8152602001908152602001600020600601600085815260200190815260200160002060030183815481101515610e0257fe5b9060005260206000200160009054906101000a900473ffffffffffffffffffffffffffffffffffffffff1673ffffffffffffffffffffffffffffffffffffffff161415610e4e57600193505b816001019150610dac565b826001019250610d92565b839650610e6d565b5b50505050505092915050565b60075481565b60003360018060008373ffffffffffffffffffffffffffffffffffffffff1673ffffffffffffffffffffffffffffffffffffffff1681526020019081526020016000206000015412151515610ed357600080fd5b6003600085815260200190815260200160002060040160009054906101000a900460ff168015610f37575060036000858152602001908152602001600020600601600084815260200190815260200160002060020160009054906101000a900460ff165b8015610f585750600360008581526020019081526020016000206003015442105b15610ffd57610f673385610cfa565b1515610ffc576003600085815260200190815260200160002060060160008481526020019081526020016000206003013390806001815401808255809150509060018203906000526020600020016000909192909190916101000a81548173ffffffffffffffffffffffffffffffffffffffff021916908373ffffffffffffffffffffffffffffffffffffffff160217905550505b5b5092915050565b606060008213801561101857506004548213155b156110d357600360008381526020019081526020016000206002018054600181600116156101000203166002900480601f0160208091040260200160405190810160405280929190818152602001828054600181600116156101000203166002900480156110c75780601f1061109c576101008083540402835291602001916110c7565b820191906000526020600020905b8154815290600101906020018083116110aa57829003601f168201915b505050505090506110e7565b602060405190810160405280600081525090505b919050565b60008060009054906101000a900473ffffffffffffffffffffffffffffffffffffffff1673ffffffffffffffffffffffffffffffffffffffff163373ffffffffffffffffffffffffffffffffffffffff1614151561114957600080fd5b6001821215801561115b575060038213155b80156111a957506000600160008573ffffffffffffffffffffffffffffffffffffffff1673ffffffffffffffffffffffffffffffffffffffff16815260200190815260200160002060000154145b156112795760206040519081016040528083815250600160008573ffffffffffffffffffffffffffffffffffffffff1673ffffffffffffffffffffffffffffffffffffffff1681526020019081526020016000206000820151816000015590505060028390806001815401808255809150509060018203906000526020600020016000909192909190916101000a81548173ffffffffffffffffffffffffffffffffffffffff021916908373ffffffffffffffffffffffffffffffffffffffff160217905550506001905061127e565b600090505b92915050565b60006003600084815260200190815260200160002060040160009054906101000a900460ff1680156112ea575060036000848152602001908152602001600020600601600083815260200190815260200160002060020160009054906101000a900460ff165b1561132457600360008481526020019081526020016000206006016000838152602001908152602001600020600301805490509050611348565b7fffffffffffffffffffffffffffffffffffffffffffffffffffffffffffffffff90505b92915050565b606060008213801561136257506004548213155b1561141d57600360008381526020019081526020016000206001018054600181600116156101000203166002900480601f0160208091040260200160405190810160405280929190818152602001828054600181600116156101000203166002900480156114115780601f106113e657610100808354040283529160200191611411565b820191906000526020600020905b8154815290600101906020018083116113f457829003601f168201915b50505050509050611431565b602060405190810160405280600081525090505b919050565b6000600280549050905090565b6000809054906101000a900473ffffffffffffffffffffffffffffffffffffffff1673ffffffffffffffffffffffffffffffffffffffff163373ffffffffffffffffffffffffffffffffffffffff1614151561149e57600080fd5b6000600160008373ffffffffffffffffffffffffffffffffffffffff1673ffffffffffffffffffffffffffffffffffffffff1681526020019081526020016000206000018190555050565b6000809054906101000a900473ffffffffffffffffffffffffffffffffffffffff1681565b60008060009054906101000a900473ffffffffffffffffffffffffffffffffffffffff1673ffffffffffffffffffffffffffffffffffffffff163373ffffffffffffffffffffffffffffffffffffffff1614151561156b57600080fd5b81600160008573ffffffffffffffffffffffffffffffffffffffff1673ffffffffffffffffffffffffffffffffffffffff168152602001908152602001600020600001819055506001905092915050565b60606003600084815260200190815260200160002060040160009054906101000a900460ff168015611622575060036000848152602001908152602001600020600601600083815260200190815260200160002060020160009054906101000a900460ff165b156116f1576003600084815260200190815260200160002060060160008381526020019081526020016000206001018054600181600116156101000203166002900480601f0160208091040260200160405190810160405280929190818152602001828054600181600116156101000203166002900480156116e55780601f106116ba576101008083540402835291602001916116e5565b820191906000526020600020905b8154815290600101906020018083116116c857829003601f168201915b50505050509050611705565b602060405190810160405280600081525090505b92915050565b60055481565b6000600160008373ffffffffffffffffffffffffffffffffffffffff1673ffffffffffffffffffffffffffffffffffffffff168152602001908152602001600020600001549050919050565b600080843373ffffffffffffffffffffffffffffffffffffffff166003600083815260200190815260200160002060000160009054906101000a900473ffffffffffffffffffffffffffffffffffffffff1673ffffffffffffffffffffffffffffffffffffffff161415156117d157600080fd5b6000855111801561180257506003600087815260200190815260200160002060040160009054906101000a900460ff165b156118f5576003600087815260200190815260200160002060050160008154600101919050819055915084600360008881526020019081526020016000206006016000848152602001908152602001600020600001908051906020019061186a929190611bf5565b508360036000888152602001908152602001600020600601600084815260200190815260200160002060010190805190602001906118a9929190611bf5565b50600160036000888152602001908152602001600020600601600084815260200190815260200160002060020160006101000a81548160ff021916908315150217905550819250611919565b7fffffffffffffffffffffffffffffffffffffffffffffffffffffffffffffffff92505b50509392505050565b60006003600083815260200190815260200160002060040160009054906101000a900460ff161561196d5760036000838152602001908152602001600020600301544211905061196e565b5b919050565b60006003600083815260200190815260200160002060040160009054906101000a900460ff16156119bc57600360008381526020019081526020016000206005015490506119e0565b7fffffffffffffffffffffffffffffffffffffffffffffffffffffffffffffffff90505b919050565b6000336002600160008373ffffffffffffffffffffffffffffffffffffffff1673ffffffffffffffffffffffffffffffffffffffff1681526020019081526020016000206000015412151515611a3a57600080fd5b60008451118015611a4c575060008351115b15611b9757600460008154600101919050819055915083600360008481526020019081526020016000206001019080519060200190611a8c929190611bf5565b5082600360008481526020019081526020016000206002019080519060200190611ab7929190611bf5565b50336003600084815260200190815260200160002060000160006101000a81548173ffffffffffffffffffffffffffffffffffffffff021916908373ffffffffffffffffffffffffffffffffffffffff1602179055506007544201600360008481526020019081526020016000206003018190555060016003600084815260200190815260200160002060040160006101000a81548160ff0219169083151502179055507f03d2af6040faa3952c8a471b3a3de1b66d2caf669148599e78be4df114f0a076826040518082815260200191505060405180910390a1611bef565b7f03d2af6040faa3952c8a471b3a3de1b66d2caf669148599e78be4df114f0a0767fffffffffffffffffffffffffffffffffffffffffffffffffffffffffffffffff6040518082815260200191505060405180910390a15b50505050565b828054600181600116156101000203166002900490600052602060002090601f016020900481019282601f10611c3657805160ff1916838001178555611c64565b82800160010185558215611c64579182015b82811115611c63578251825591602001919060010190611c48565b5b509050611c719190611c75565b5090565b611c9791905b80821115611c93576000816000905550600101611c7b565b5090565b905600a165627a7a72305820cb0c4ecf4dfa43fac17aa985627c795ede304f0124050b89a93b1cb88746a2b10029",
  "source": "pragma solidity ^0.4.4;\n\n\ncontract ethervote {\n  //Data structures\n  struct Voter {\n      int privilege;      //Privilegi: 0 usuari no valid, 1 pot votar, 2 pot crear votacions\n  }\n\n  struct Option {\n    string name;\n    string description;\n    bool exists;\n    address[] votes;\n  }\n\n  struct Proposal{\n    address creator;\n    string name;\n    string description;\n    uint votingDeadline;\n    bool exists;\n    int n_options;\n    mapping (int => Option) options;\n  }\n  //fi Data structures\n\n    // Variables Globals\n    address public owner;                      //administrador de aquesta instancia, tindra el control\n    mapping(address => Voter) private census;  //conjunt de adreces que podran votar\n    address[] private voters;\n    mapping (int => Proposal) private proposals;       //conjunt de proposals a votar\n    int private n_proposals;\n    uint public creationTime;                  //Quan es va crear el contracte\n    string public name;                        //Nom de la organitzaci\n    uint public defaultVotingTime;                    //Temps per defecte de les votacions\n    //Fi Variables Globals\n\n\n    //Modifiers\n    modifier onlyOwner {\n        require(msg.sender == owner);\n        _;\n    }\n    modifier onlyCreator(int _proposalID) {\n      require(proposals[_proposalID].creator == msg.sender);\n      _;\n    }\n    modifier canVote(address _voter) {\n        require(census[_voter].privilege >= 1);\n        _;\n    }\n    modifier canCreate(address _voter) {\n      require(census[_voter].privilege >=2);\n      _;\n    }\n    //Creadora\n    constructor(string _name, uint _defaultVotingTime) public  {\n      owner = msg.sender;\n      census[msg.sender].privilege = 2;\n      n_proposals = 0;\n      creationTime = now;\n      name = _name;\n      defaultVotingTime = _defaultVotingTime;\n     }\n    //L'esdeveniment saltara amb el resultat de si s'ha afegit be o no el votant. Una adrea 0 significa que hi ha hagut algun error\n    //event addVoterResult(address _voter);\n\n    //Afegir votant\n    function addVoter(address _voter, int _privilege) onlyOwner public returns(bool) {\n      if((_privilege >= 1) &&\n        (_privilege <=3) &&\n        (census[_voter].privilege == 0)){\n            census[_voter] = Voter({privilege: _privilege});\n            voters.push(_voter);\n            return true;\n            //emit addVoterResult(_voter);\n      }\n      return false;\n      //emit addVoterResult(address(0));\n    }\n\n    function getPrivilege(address _voter) public view returns(int){\n      return census[_voter].privilege;\n    }\n\n    function changePrivilege(address _voter, int _privilege) onlyOwner public returns(bool) {\n      census[_voter].privilege = _privilege;\n      return true;\n    }\n\n    function deleteVoter(address _voter) public onlyOwner {\n        census[_voter].privilege = 0;\n    }\n\n    function getNumberOfVoters() public view returns (int){\n        return int(voters.length);\n    }\n\nevent addProposal(int id);\nfunction newProposal(string _name, string _description)  canCreate(msg.sender) public {\n    if( (bytes(_name).length > 0) &&\n        (bytes(_description).length > 0)\n    ){\n        int proposalID = ++n_proposals;\n        proposals[proposalID].name = _name;\n        proposals[proposalID].description = _description;\n        proposals[proposalID].creator = msg.sender;\n        proposals[proposalID].votingDeadline = now + defaultVotingTime;\n        proposals[proposalID].exists = true;\n        emit addProposal(proposalID);\n    }\n    else emit addProposal(-1);\n}\n\n    function getProposalName(int id) public view returns(string) {\n        //string pname = \"\";\n        if(id > 0 && id <= n_proposals) {\n            return proposals[id].name;\n            //emit option(proposals[id].name);\n        } else return \"\";\n    }\n\n    function getProposalDescription(int id) public view returns(string) {\n        if(id > 0 && id <= n_proposals) {\n          return proposals[id].description;\n        } else return \"\";\n    }\n\n    function addOption(int _proposalID, string _name, string _description) onlyCreator(_proposalID) public returns(int)  {\n        if( (bytes(_name).length > 0) && //si el nom no esta buit\n            (proposals[_proposalID].exists) //si la proposal existeix\n        ){\n\n            int n_option = ++proposals[_proposalID].n_options;\n            proposals[_proposalID].options[n_option].name = _name;\n            proposals[_proposalID].options[n_option].description  = _description;\n            proposals[_proposalID].options[n_option].exists = true;\n            return n_option;\n        } else return -1;\n    }\n\n    function getNumberOfOptions(int _proposalID) public view returns(int) {\n      if(proposals[_proposalID].exists){\n          return proposals[_proposalID].n_options;\n      } else return -1;\n    }\n    function getName() public view returns(string) {\n      return name; \n    }\n    function getNumberOfVotes(int _proposalID, int _n_option) public view returns(int){\n      if(proposals[_proposalID].exists &&\n         proposals[_proposalID].options[_n_option].exists\n        ){\n          return int(proposals[_proposalID].options[_n_option].votes.length);\n      } else return -1;\n    }\n    function getOptionName(int _proposalID, int _n_option) public view returns(string) {\n      if(proposals[_proposalID].exists &&\n         proposals[_proposalID].options[_n_option].exists\n        ){\n          return proposals[_proposalID].options[_n_option].name;\n      } else return \"\";\n    }\n\n    function getOptionDescription(int _proposalID, int _n_option) public view returns(string) {\n      if(proposals[_proposalID].exists &&\n         proposals[_proposalID].options[_n_option].exists\n         ){\n          return proposals[_proposalID].options[_n_option].description;\n      } else return \"\";\n    }\n\n    function hasEnded(int _proposalID) public view returns(bool) {\n      if(proposals[_proposalID].exists){\n          return now > proposals[_proposalID].votingDeadline;\n      }\n    }\n      function getNumberOfProposals() public view returns (int) {\n        return n_proposals;\n      }\n\n    event e_vote(bool a);\n    event option(string o);\n    function vote(int _proposalID, int _option) public canVote(msg.sender) returns(bool){\n      if(proposals[_proposalID].exists &&\n           proposals[_proposalID].options[_option].exists &&\n           (now < proposals[_proposalID].votingDeadline)\n       ) {\n           if(!hasVoted(msg.sender,_proposalID)) {\n               proposals[_proposalID].options[_option].votes.push(msg.sender);\n           }\n       }\n    }\n\n    function hasVoted(address _voter, int _proposalID) public view canVote(_voter) returns(bool) {\n        if (proposals[_proposalID].exists) {\n            int n_options = getNumberOfOptions(_proposalID);\n            int n_votes;\n            bool voted = false;\n            for (int opt=1; opt <= n_options; ++opt) {\n                n_votes = getNumberOfVotes(_proposalID,opt);\n                for (int i=0; i < n_votes; ++i) {\n                    if(proposals[_proposalID].options[opt].votes[uint(i)] == _voter) voted = true;\n                }\n            }\n            return voted;\n        }\n    }\n\n}\n",
  "sourcePath": "/home/adria/ethervote/contracts/ethervote.sol",
  "compiler": {
    "name": "solc",
    "version": "0.4.23+commit.124ca40d.Emscripten.clang"
  },
  "schemaVersion": "2.0.0",
  "updatedAt": "2018-06-02T11:15:58.316Z"
}