{
  "contractName": "ethervote",
  "abi": [
    {
      "constant": true,
      "inputs": [],
      "name": "name",
      "outputs": [
        {
          "name": "",
          "type": "string"
        }
      ],
      "payable": false,
      "stateMutability": "view",
      "type": "function"
    },
    {
      "constant": true,
      "inputs": [],
      "name": "defaultVotingTime",
      "outputs": [
        {
          "name": "",
          "type": "uint256"
        }
      ],
      "payable": false,
      "stateMutability": "view",
      "type": "function"
    },
    {
      "constant": true,
      "inputs": [],
      "name": "owner",
      "outputs": [
        {
          "name": "",
          "type": "address"
        }
      ],
      "payable": false,
      "stateMutability": "view",
      "type": "function"
    },
    {
      "constant": true,
      "inputs": [],
      "name": "creationTime",
      "outputs": [
        {
          "name": "",
          "type": "uint256"
        }
      ],
      "payable": false,
      "stateMutability": "view",
      "type": "function"
    },
    {
      "inputs": [
        {
          "name": "_name",
          "type": "string"
        },
        {
          "name": "_defaultVotingTime",
          "type": "uint256"
        }
      ],
      "payable": false,
      "stateMutability": "nonpayable",
      "type": "constructor"
    },
    {
      "anonymous": false,
      "inputs": [
        {
          "indexed": false,
          "name": "id",
          "type": "int256"
        }
      ],
      "name": "addProposal",
      "type": "event"
    },
    {
      "anonymous": false,
      "inputs": [
        {
          "indexed": false,
          "name": "a",
          "type": "bool"
        }
      ],
      "name": "e_vote",
      "type": "event"
    },
    {
      "anonymous": false,
      "inputs": [
        {
          "indexed": false,
          "name": "o",
          "type": "string"
        }
      ],
      "name": "option",
      "type": "event"
    },
    {
      "constant": false,
      "inputs": [
        {
          "name": "_voter",
          "type": "address"
        },
        {
          "name": "_privilege",
          "type": "int256"
        }
      ],
      "name": "addVoter",
      "outputs": [
        {
          "name": "",
          "type": "bool"
        }
      ],
      "payable": false,
      "stateMutability": "nonpayable",
      "type": "function"
    },
    {
      "constant": true,
      "inputs": [
        {
          "name": "_voter",
          "type": "address"
        }
      ],
      "name": "getPrivilege",
      "outputs": [
        {
          "name": "",
          "type": "int256"
        }
      ],
      "payable": false,
      "stateMutability": "view",
      "type": "function"
    },
    {
      "constant": false,
      "inputs": [
        {
          "name": "_voter",
          "type": "address"
        },
        {
          "name": "_privilege",
          "type": "int256"
        }
      ],
      "name": "changePrivilege",
      "outputs": [
        {
          "name": "",
          "type": "bool"
        }
      ],
      "payable": false,
      "stateMutability": "nonpayable",
      "type": "function"
    },
    {
      "constant": false,
      "inputs": [
        {
          "name": "_voter",
          "type": "address"
        }
      ],
      "name": "deleteVoter",
      "outputs": [],
      "payable": false,
      "stateMutability": "nonpayable",
      "type": "function"
    },
    {
      "constant": true,
      "inputs": [],
      "name": "getNumberOfVoters",
      "outputs": [
        {
          "name": "",
          "type": "int256"
        }
      ],
      "payable": false,
      "stateMutability": "view",
      "type": "function"
    },
    {
      "constant": false,
      "inputs": [
        {
          "name": "_name",
          "type": "string"
        },
        {
          "name": "_description",
          "type": "string"
        }
      ],
      "name": "newProposal",
      "outputs": [],
      "payable": false,
      "stateMutability": "nonpayable",
      "type": "function"
    },
    {
      "constant": true,
      "inputs": [
        {
          "name": "id",
          "type": "int256"
        }
      ],
      "name": "getProposalName",
      "outputs": [
        {
          "name": "",
          "type": "string"
        }
      ],
      "payable": false,
      "stateMutability": "view",
      "type": "function"
    },
    {
      "constant": true,
      "inputs": [
        {
          "name": "id",
          "type": "int256"
        }
      ],
      "name": "getProposalDescription",
      "outputs": [
        {
          "name": "",
          "type": "string"
        }
      ],
      "payable": false,
      "stateMutability": "view",
      "type": "function"
    },
    {
      "constant": false,
      "inputs": [
        {
          "name": "_proposalID",
          "type": "int256"
        },
        {
          "name": "_name",
          "type": "string"
        },
        {
          "name": "_description",
          "type": "string"
        }
      ],
      "name": "addOption",
      "outputs": [
        {
          "name": "",
          "type": "int256"
        }
      ],
      "payable": false,
      "stateMutability": "nonpayable",
      "type": "function"
    },
    {
      "constant": true,
      "inputs": [
        {
          "name": "_proposalID",
          "type": "int256"
        }
      ],
      "name": "getNumberOfOptions",
      "outputs": [
        {
          "name": "",
          "type": "int256"
        }
      ],
      "payable": false,
      "stateMutability": "view",
      "type": "function"
    },
    {
      "constant": true,
      "inputs": [
        {
          "name": "_proposalID",
          "type": "int256"
        },
        {
          "name": "_n_option",
          "type": "int256"
        }
      ],
      "name": "getNumberOfVotes",
      "outputs": [
        {
          "name": "",
          "type": "int256"
        }
      ],
      "payable": false,
      "stateMutability": "view",
      "type": "function"
    },
    {
      "constant": true,
      "inputs": [
        {
          "name": "_proposalID",
          "type": "int256"
        },
        {
          "name": "_n_option",
          "type": "int256"
        }
      ],
      "name": "getOptionName",
      "outputs": [
        {
          "name": "",
          "type": "string"
        }
      ],
      "payable": false,
      "stateMutability": "view",
      "type": "function"
    },
    {
      "constant": true,
      "inputs": [
        {
          "name": "_proposalID",
          "type": "int256"
        },
        {
          "name": "_n_option",
          "type": "int256"
        }
      ],
      "name": "getOptionDescription",
      "outputs": [
        {
          "name": "",
          "type": "string"
        }
      ],
      "payable": false,
      "stateMutability": "view",
      "type": "function"
    },
    {
      "constant": true,
      "inputs": [
        {
          "name": "_proposalID",
          "type": "int256"
        }
      ],
      "name": "hasEnded",
      "outputs": [
        {
          "name": "",
          "type": "bool"
        }
      ],
      "payable": false,
      "stateMutability": "view",
      "type": "function"
    },
    {
      "constant": true,
      "inputs": [],
      "name": "getNumberOfProposals",
      "outputs": [
        {
          "name": "",
          "type": "int256"
        }
      ],
      "payable": false,
      "stateMutability": "view",
      "type": "function"
    },
    {
      "constant": false,
      "inputs": [
        {
          "name": "_proposalID",
          "type": "int256"
        },
        {
          "name": "_option",
          "type": "int256"
        }
      ],
      "name": "vote",
      "outputs": [
        {
          "name": "",
          "type": "bool"
        }
      ],
      "payable": false,
      "stateMutability": "nonpayable",
      "type": "function"
    },
    {
      "constant": true,
      "inputs": [
        {
          "name": "_voter",
          "type": "address"
        },
        {
          "name": "_proposalID",
          "type": "int256"
        }
      ],
      "name": "hasVoted",
      "outputs": [
        {
          "name": "",
          "type": "bool"
        }
      ],
      "payable": false,
      "stateMutability": "view",
      "type": "function"
    }
  ],
  "bytecode": "0x60806040523480156200001157600080fd5b5060405162001d4a38038062001d4a8339810180604052810190808051820192919060200180519060200190929190505050336000806101000a81548173ffffffffffffffffffffffffffffffffffffffff021916908373ffffffffffffffffffffffffffffffffffffffff1602179055506002600160003373ffffffffffffffffffffffffffffffffffffffff1673ffffffffffffffffffffffffffffffffffffffff168152602001908152602001600020600001819055506000600481905550426005819055508160069080519060200190620000f292919062000102565b50806007819055505050620001b1565b828054600181600116156101000203166002900490600052602060002090601f016020900481019282601f106200014557805160ff191683800117855562000176565b8280016001018555821562000176579182015b828111156200017557825182559160200191906001019062000158565b5b50905062000185919062000189565b5090565b620001ae91905b80821115620001aa57600081600090555060010162000190565b5090565b90565b611b8980620001c16000396000f30060806040526004361061011d576000357c0100000000000000000000000000000000000000000000000000000000900463ffffffff16806306fdde0314610122578063253eecdf146101b257806333809b6c146102625780634ec3e6851461028d57806365b4969a146102f257806369f747141461031d5780636abd1a591461036c5780636f5b9af31461041257806373fa57061461047757806383bd7210146104c257806384865b661461056857806388e1c739146105935780638da5cb5b146105d6578063d07119301461062d578063d1a3741f14610692578063d8270dce14610742578063eae239c31461076d578063f1480fb7146107c4578063f1eb6ec714610891578063f2f9f553146108d6578063f5cbc8e414610917575b600080fd5b34801561012e57600080fd5b506101376109c6565b6040518080602001828103825283818151815260200191508051906020019080838360005b8381101561017757808201518184015260208101905061015c565b50505050905090810190601f1680156101a45780820380516001836020036101000a031916815260200191505b509250505060405180910390f35b3480156101be57600080fd5b506101e76004803603810190808035906020019092919080359060200190929190505050610a64565b6040518080602001828103825283818151815260200191508051906020019080838360005b8381101561022757808201518184015260208101905061020c565b50505050905090810190601f1680156102545780820380516001836020036101000a031916815260200191505b509250505060405180910390f35b34801561026e57600080fd5b50610277610bb3565b6040518082815260200191505060405180910390f35b34801561029957600080fd5b506102d8600480360381019080803573ffffffffffffffffffffffffffffffffffffffff16906020019092919080359060200190929190505050610bbd565b604051808215151515815260200191505060405180910390f35b3480156102fe57600080fd5b50610307610d3c565b6040518082815260200191505060405180910390f35b34801561032957600080fd5b506103526004803603810190808035906020019092919080359060200190929190505050610d42565b604051808215151515815260200191505060405180910390f35b34801561037857600080fd5b5061039760048036038101908080359060200190929190505050610ec7565b6040518080602001828103825283818151815260200191508051906020019080838360005b838110156103d75780820151818401526020810190506103bc565b50505050905090810190601f1680156104045780820380516001836020036101000a031916815260200191505b509250505060405180910390f35b34801561041e57600080fd5b5061045d600480360381019080803573ffffffffffffffffffffffffffffffffffffffff16906020019092919080359060200190929190505050610faf565b604051808215151515815260200191505060405180910390f35b34801561048357600080fd5b506104ac6004803603810190808035906020019092919080359060200190929190505050611147565b6040518082815260200191505060405180910390f35b3480156104ce57600080fd5b506104ed60048036038101908080359060200190929190505050611211565b6040518080602001828103825283818151815260200191508051906020019080838360005b8381101561052d578082015181840152602081019050610512565b50505050905090810190601f16801561055a5780820380516001836020036101000a031916815260200191505b509250505060405180910390f35b34801561057457600080fd5b5061057d6112f9565b6040518082815260200191505060405180910390f35b34801561059f57600080fd5b506105d4600480360381019080803573ffffffffffffffffffffffffffffffffffffffff169060200190929190505050611306565b005b3480156105e257600080fd5b506105eb6113ac565b604051808273ffffffffffffffffffffffffffffffffffffffff1673ffffffffffffffffffffffffffffffffffffffff16815260200191505060405180910390f35b34801561063957600080fd5b50610678600480360381019080803573ffffffffffffffffffffffffffffffffffffffff169060200190929190803590602001909291905050506113d1565b604051808215151515815260200191505060405180910390f35b34801561069e57600080fd5b506106c7600480360381019080803590602001909291908035906020019092919050505061147f565b6040518080602001828103825283818151815260200191508051906020019080838360005b838110156107075780820151818401526020810190506106ec565b50505050905090810190601f1680156107345780820380516001836020036101000a031916815260200191505b509250505060405180910390f35b34801561074e57600080fd5b506107576115ce565b6040518082815260200191505060405180910390f35b34801561077957600080fd5b506107ae600480360381019080803573ffffffffffffffffffffffffffffffffffffffff1690602001909291905050506115d4565b6040518082815260200191505060405180910390f35b3480156107d057600080fd5b5061087b60048036038101908080359060200190929190803590602001908201803590602001908080601f0160208091040260200160405190810160405280939291908181526020018383808284378201915050505050509192919290803590602001908201803590602001908080601f0160208091040260200160405190810160405280939291908181526020018383808284378201915050505050509192919290505050611620565b6040518082815260200191505060405180910390f35b34801561089d57600080fd5b506108bc600480360381019080803590602001909291905050506117e5565b604051808215151515815260200191505060405180910390f35b3480156108e257600080fd5b5061090160048036038101908080359060200190929190505050611836565b6040518082815260200191505060405180910390f35b34801561092357600080fd5b506109c4600480360381019080803590602001908201803590602001908080601f0160208091040260200160405190810160405280939291908181526020018383808284378201915050505050509192919290803590602001908201803590602001908080601f01602080910402602001604051908101604052809392919081815260200183838082843782019150505050505091929192905050506118a8565b005b60068054600181600116156101000203166002900480601f016020809104026020016040519081016040528092919081815260200182805460018160011615610100020316600290048015610a5c5780601f10610a3157610100808354040283529160200191610a5c565b820191906000526020600020905b815481529060010190602001808311610a3f57829003601f168201915b505050505081565b60606003600084815260200190815260200160002060040160009054906101000a900460ff168015610aca575060036000848152602001908152602001600020600601600083815260200190815260200160002060020160009054906101000a900460ff165b15610b99576003600084815260200190815260200160002060060160008381526020019081526020016000206000018054600181600116156101000203166002900480601f016020809104026020016040519081016040528092919081815260200182805460018160011615610100020316600290048015610b8d5780601f10610b6257610100808354040283529160200191610b8d565b820191906000526020600020905b815481529060010190602001808311610b7057829003601f168201915b50505050509050610bad565b602060405190810160405280600081525090505b92915050565b6000600454905090565b6000806000806000808760018060008373ffffffffffffffffffffffffffffffffffffffff1673ffffffffffffffffffffffffffffffffffffffff1681526020019081526020016000206000015412151515610c1857600080fd5b6003600089815260200190815260200160002060040160009054906101000a900460ff1615610d2f57610c4a88611836565b955060009350600192505b8583131515610d2757610c688884611147565b9450600091505b84821215610d1c578873ffffffffffffffffffffffffffffffffffffffff16600360008a8152602001908152602001600020600601600085815260200190815260200160002060030183815481101515610cc557fe5b9060005260206000200160009054906101000a900473ffffffffffffffffffffffffffffffffffffffff1673ffffffffffffffffffffffffffffffffffffffff161415610d1157600193505b816001019150610c6f565b826001019250610c55565b839650610d30565b5b50505050505092915050565b60075481565b60003360018060008373ffffffffffffffffffffffffffffffffffffffff1673ffffffffffffffffffffffffffffffffffffffff1681526020019081526020016000206000015412151515610d9657600080fd5b6003600085815260200190815260200160002060040160009054906101000a900460ff168015610dfa575060036000858152602001908152602001600020600601600084815260200190815260200160002060020160009054906101000a900460ff165b8015610e1b5750600360008581526020019081526020016000206003015442105b15610ec057610e2a3385610bbd565b1515610ebf576003600085815260200190815260200160002060060160008481526020019081526020016000206003013390806001815401808255809150509060018203906000526020600020016000909192909190916101000a81548173ffffffffffffffffffffffffffffffffffffffff021916908373ffffffffffffffffffffffffffffffffffffffff160217905550505b5b5092915050565b6060600082138015610edb57506004548213155b15610f9657600360008381526020019081526020016000206002018054600181600116156101000203166002900480601f016020809104026020016040519081016040528092919081815260200182805460018160011615610100020316600290048015610f8a5780601f10610f5f57610100808354040283529160200191610f8a565b820191906000526020600020905b815481529060010190602001808311610f6d57829003601f168201915b50505050509050610faa565b602060405190810160405280600081525090505b919050565b60008060009054906101000a900473ffffffffffffffffffffffffffffffffffffffff1673ffffffffffffffffffffffffffffffffffffffff163373ffffffffffffffffffffffffffffffffffffffff1614151561100c57600080fd5b6001821215801561101e575060038213155b801561106c57506000600160008573ffffffffffffffffffffffffffffffffffffffff1673ffffffffffffffffffffffffffffffffffffffff16815260200190815260200160002060000154145b1561113c5760206040519081016040528083815250600160008573ffffffffffffffffffffffffffffffffffffffff1673ffffffffffffffffffffffffffffffffffffffff1681526020019081526020016000206000820151816000015590505060028390806001815401808255809150509060018203906000526020600020016000909192909190916101000a81548173ffffffffffffffffffffffffffffffffffffffff021916908373ffffffffffffffffffffffffffffffffffffffff1602179055505060019050611141565b600090505b92915050565b60006003600084815260200190815260200160002060040160009054906101000a900460ff1680156111ad575060036000848152602001908152602001600020600601600083815260200190815260200160002060020160009054906101000a900460ff165b156111e75760036000848152602001908152602001600020600601600083815260200190815260200160002060030180549050905061120b565b7fffffffffffffffffffffffffffffffffffffffffffffffffffffffffffffffff90505b92915050565b606060008213801561122557506004548213155b156112e057600360008381526020019081526020016000206001018054600181600116156101000203166002900480601f0160208091040260200160405190810160405280929190818152602001828054600181600116156101000203166002900480156112d45780601f106112a9576101008083540402835291602001916112d4565b820191906000526020600020905b8154815290600101906020018083116112b757829003601f168201915b505050505090506112f4565b602060405190810160405280600081525090505b919050565b6000600280549050905090565b6000809054906101000a900473ffffffffffffffffffffffffffffffffffffffff1673ffffffffffffffffffffffffffffffffffffffff163373ffffffffffffffffffffffffffffffffffffffff1614151561136157600080fd5b6000600160008373ffffffffffffffffffffffffffffffffffffffff1673ffffffffffffffffffffffffffffffffffffffff1681526020019081526020016000206000018190555050565b6000809054906101000a900473ffffffffffffffffffffffffffffffffffffffff1681565b60008060009054906101000a900473ffffffffffffffffffffffffffffffffffffffff1673ffffffffffffffffffffffffffffffffffffffff163373ffffffffffffffffffffffffffffffffffffffff1614151561142e57600080fd5b81600160008573ffffffffffffffffffffffffffffffffffffffff1673ffffffffffffffffffffffffffffffffffffffff168152602001908152602001600020600001819055506001905092915050565b60606003600084815260200190815260200160002060040160009054906101000a900460ff1680156114e5575060036000848152602001908152602001600020600601600083815260200190815260200160002060020160009054906101000a900460ff165b156115b4576003600084815260200190815260200160002060060160008381526020019081526020016000206001018054600181600116156101000203166002900480601f0160208091040260200160405190810160405280929190818152602001828054600181600116156101000203166002900480156115a85780601f1061157d576101008083540402835291602001916115a8565b820191906000526020600020905b81548152906001019060200180831161158b57829003601f168201915b505050505090506115c8565b602060405190810160405280600081525090505b92915050565b60055481565b6000600160008373ffffffffffffffffffffffffffffffffffffffff1673ffffffffffffffffffffffffffffffffffffffff168152602001908152602001600020600001549050919050565b600080843373ffffffffffffffffffffffffffffffffffffffff166003600083815260200190815260200160002060000160009054906101000a900473ffffffffffffffffffffffffffffffffffffffff1673ffffffffffffffffffffffffffffffffffffffff1614151561169457600080fd5b600085511180156116c557506003600087815260200190815260200160002060040160009054906101000a900460ff165b156117b8576003600087815260200190815260200160002060050160008154600101919050819055915084600360008881526020019081526020016000206006016000848152602001908152602001600020600001908051906020019061172d929190611ab8565b5083600360008881526020019081526020016000206006016000848152602001908152602001600020600101908051906020019061176c929190611ab8565b50600160036000888152602001908152602001600020600601600084815260200190815260200160002060020160006101000a81548160ff0219169083151502179055508192506117dc565b7fffffffffffffffffffffffffffffffffffffffffffffffffffffffffffffffff92505b50509392505050565b60006003600083815260200190815260200160002060040160009054906101000a900460ff161561183057600360008381526020019081526020016000206003015442119050611831565b5b919050565b60006003600083815260200190815260200160002060040160009054906101000a900460ff161561187f57600360008381526020019081526020016000206005015490506118a3565b7fffffffffffffffffffffffffffffffffffffffffffffffffffffffffffffffff90505b919050565b6000336002600160008373ffffffffffffffffffffffffffffffffffffffff1673ffffffffffffffffffffffffffffffffffffffff16815260200190815260200160002060000154121515156118fd57600080fd5b6000845111801561190f575060008351115b15611a5a5760046000815460010191905081905591508360036000848152602001908152602001600020600101908051906020019061194f929190611ab8565b508260036000848152602001908152602001600020600201908051906020019061197a929190611ab8565b50336003600084815260200190815260200160002060000160006101000a81548173ffffffffffffffffffffffffffffffffffffffff021916908373ffffffffffffffffffffffffffffffffffffffff1602179055506007544201600360008481526020019081526020016000206003018190555060016003600084815260200190815260200160002060040160006101000a81548160ff0219169083151502179055507f03d2af6040faa3952c8a471b3a3de1b66d2caf669148599e78be4df114f0a076826040518082815260200191505060405180910390a1611ab2565b7f03d2af6040faa3952c8a471b3a3de1b66d2caf669148599e78be4df114f0a0767fffffffffffffffffffffffffffffffffffffffffffffffffffffffffffffffff6040518082815260200191505060405180910390a15b50505050565b828054600181600116156101000203166002900490600052602060002090601f016020900481019282601f10611af957805160ff1916838001178555611b27565b82800160010185558215611b27579182015b82811115611b26578251825591602001919060010190611b0b565b5b509050611b349190611b38565b5090565b611b5a91905b80821115611b56576000816000905550600101611b3e565b5090565b905600a165627a7a723058208f29dc7623b7c87a77d3e1e9ac1062486bc165f3f1658c6059fb8f189c57f6bb0029",
  "source": "pragma solidity ^0.4.4;\n\n\ncontract ethervote {\n  //Data structures\n  struct Voter {\n      int privilege;      //Privilegi: 0 usuari no valid, 1 pot votar, 2 pot crear votacions\n  }\n\n  struct Option {\n    string name;\n    string description;\n    bool exists;\n    address[] votes;\n  }\n\n  struct Proposal{\n    address creator;\n    string name;\n    string description;\n    uint votingDeadline;\n    bool exists;\n    int n_options;\n    mapping (int => Option) options;\n  }\n  //fi Data structures\n\n    // Variables Globals\n    address public owner;                      //administrador de aquesta instancia, tindra el control\n    mapping(address => Voter) private census;  //conjunt de adreces que podran votar\n    address[] private voters;\n    mapping (int => Proposal) private proposals;       //conjunt de proposals a votar\n    int private n_proposals;\n    uint public creationTime;                  //Quan es va crear el contracte\n    string public name;                        //Nom de la organització\n    uint public defaultVotingTime;                    //Temps per defecte de les votacions\n    //Fi Variables Globals\n\n\n    //Modifiers\n    modifier onlyOwner {\n        require(msg.sender == owner);\n        _;\n    }\n    modifier onlyCreator(int _proposalID) {\n      require(proposals[_proposalID].creator == msg.sender);\n      _;\n    }\n    modifier canVote(address _voter) {\n        require(census[_voter].privilege >= 1);\n        _;\n    }\n    modifier canCreate(address _voter) {\n      require(census[_voter].privilege >=2);\n      _;\n    }\n    //Creadora\n    constructor(string _name, uint _defaultVotingTime) public  {\n      owner = msg.sender;\n      census[msg.sender].privilege = 2;\n      n_proposals = 0;\n      creationTime = now;\n      name = _name;\n      defaultVotingTime = _defaultVotingTime;\n     }\n    //L'esdeveniment saltara amb el resultat de si s'ha afegit be o no el votant. Una adreça 0 significa que hi ha hagut algun error\n    //event addVoterResult(address _voter);\n\n    //Afegir votant\n    function addVoter(address _voter, int _privilege) onlyOwner public returns(bool) {\n      if((_privilege >= 1) &&\n        (_privilege <=3) &&\n        (census[_voter].privilege == 0)){\n            census[_voter] = Voter({privilege: _privilege});\n            voters.push(_voter);\n            return true;\n            //emit addVoterResult(_voter);\n      }\n      return false;\n      //emit addVoterResult(address(0));\n    }\n\n    function getPrivilege(address _voter) public view returns(int){\n      return census[_voter].privilege;\n    }\n\n    function changePrivilege(address _voter, int _privilege) onlyOwner public returns(bool) {\n      census[_voter].privilege = _privilege;\n      return true;\n    }\n\n    function deleteVoter(address _voter) public onlyOwner {\n        census[_voter].privilege = 0;\n    }\n\n    function getNumberOfVoters() public view returns (int){\n        return int(voters.length);\n    }\n\nevent addProposal(int id);\nfunction newProposal(string _name, string _description)  canCreate(msg.sender) public {\n    if( (bytes(_name).length > 0) &&\n        (bytes(_description).length > 0)\n    ){\n        int proposalID = ++n_proposals;\n        proposals[proposalID].name = _name;\n        proposals[proposalID].description = _description;\n        proposals[proposalID].creator = msg.sender;\n        proposals[proposalID].votingDeadline = now + defaultVotingTime;\n        proposals[proposalID].exists = true;\n        emit addProposal(proposalID);\n    }\n    else emit addProposal(-1);\n}\n\n    function getProposalName(int id) public view returns(string) {\n        //string pname = \"\";\n        if(id > 0 && id <= n_proposals) {\n            return proposals[id].name;\n            //emit option(proposals[id].name);\n        } else return \"\";\n    }\n\n    function getProposalDescription(int id) public view returns(string) {\n        if(id > 0 && id <= n_proposals) {\n          return proposals[id].description;\n        } else return \"\";\n    }\n\n    function addOption(int _proposalID, string _name, string _description) onlyCreator(_proposalID) public returns(int)  {\n        if( (bytes(_name).length > 0) && //si el nom no esta buit\n            (proposals[_proposalID].exists) //si la proposal existeix\n        ){\n\n            int n_option = ++proposals[_proposalID].n_options;\n            proposals[_proposalID].options[n_option].name = _name;\n            proposals[_proposalID].options[n_option].description  = _description;\n            proposals[_proposalID].options[n_option].exists = true;\n            return n_option;\n        } else return -1;\n    }\n\n    function getNumberOfOptions(int _proposalID) public view returns(int) {\n      if(proposals[_proposalID].exists){\n          return proposals[_proposalID].n_options;\n      } else return -1;\n    }\n    function getNumberOfVotes(int _proposalID, int _n_option) public view returns(int){\n      if(proposals[_proposalID].exists &&\n         proposals[_proposalID].options[_n_option].exists\n        ){\n          return int(proposals[_proposalID].options[_n_option].votes.length);\n      } else return -1;\n    }\n    function getOptionName(int _proposalID, int _n_option) public view returns(string) {\n      if(proposals[_proposalID].exists &&\n         proposals[_proposalID].options[_n_option].exists\n        ){\n          return proposals[_proposalID].options[_n_option].name;\n      } else return \"\";\n    }\n\n    function getOptionDescription(int _proposalID, int _n_option) public view returns(string) {\n      if(proposals[_proposalID].exists &&\n         proposals[_proposalID].options[_n_option].exists\n         ){\n          return proposals[_proposalID].options[_n_option].description;\n      } else return \"\";\n    }\n\n    function hasEnded(int _proposalID) public view returns(bool) {\n      if(proposals[_proposalID].exists){\n          return now > proposals[_proposalID].votingDeadline;\n      }\n    }\n      function getNumberOfProposals() public view returns (int) {\n        return n_proposals;\n      }\n\n    event e_vote(bool a);\n    event option(string o);\n    function vote(int _proposalID, int _option) public canVote(msg.sender) returns(bool){\n      if(proposals[_proposalID].exists &&\n           proposals[_proposalID].options[_option].exists &&\n           (now < proposals[_proposalID].votingDeadline)\n       ) {\n           if(!hasVoted(msg.sender,_proposalID)) {\n               proposals[_proposalID].options[_option].votes.push(msg.sender);\n           }\n       }\n    }\n\n    function hasVoted(address _voter, int _proposalID) public view canVote(_voter) returns(bool) {\n        if (proposals[_proposalID].exists) {\n            int n_options = getNumberOfOptions(_proposalID);\n            int n_votes;\n            bool voted = false;\n            for (int opt=1; opt <= n_options; ++opt) {\n                n_votes = getNumberOfVotes(_proposalID,opt);\n                for (int i=0; i < n_votes; ++i) {\n                    if(proposals[_proposalID].options[opt].votes[uint(i)] == _voter) voted = true;\n                }\n            }\n            return voted;\n        }\n    }\n\n}\n",
  "sourcePath": "/home/adria/ethervote/contracts/ethervote.sol",
  "compiler": {
    "name": "solc",
    "version": "0.4.23+commit.124ca40d.Emscripten.clang"
  },
  "schemaVersion": "2.0.0",
  "updatedAt": "2018-05-24T07:40:52.067Z"
}